:020000040000FA
:10000000700400206D020000710200007302000005
:100010007502000077020000790200000000000075
:100020000000000000000000000000007B02000053
:100030007D020000000000007F020000810200003D
:10004000830200008302000083020000830200009C
:10005000830200008302000083020000830200008C
:10006000830200008302000083020000830200007C
:10007000830200008302000083020000830200006C
:10008000830200008302000083020000830200005C
:10009000830200008302000083020000830200004C
:1000A000830200008302000083020000830200003C
:1000B000830200008302000083020000830200002C
:1000C000830200008302000083020000830200001C
:1000D000830200008302000083020000830200000C
:1000E00083020000830200008302000083020000FC
:1000F00083020000830200008302000083020000EC
:1001000083020000830200008302000083020000DB
:1001100083020000830200008302000083020000CB
:1001200083020000830200008302000083020000BB
:1001300083020000830200008302000083020000AB
:1001400000000000000000000000000000000000AF
:10015000830200008302000083020000830200008B
:10016000000000000000000000000000000000008F
:10017000000000000000000000000000000000007F
:10018000000000000000000000000000000000006F
:10019000000000000000000000000000000000005F
:1001A000000000000000000000000000000000004F
:1001B000830200008302000083020000830200002B
:1001C000830200008302000083020000830200001B
:1001D000830200008302000083020000830200000B
:1001E00083020000830200008302000083020000FB
:1001F00083020000830200008302000083020000EB
:10020000830200008302000083020000000000005F
:1002100083020000830200008302000083020000CA
:1002200083020000830200008302000083020000BA
:1002300083020000830200008302000083020000AA
:10024000830200008302000083020000830200009A
:10025000830200008302000083020000830200008A
:1002600083020000830200008302000000F00AB84D
:10027000FEE7FEE7FEE7FEE7FEE7FEE7FEE7FEE756
:10028000FEE7FEE700F002F800F03AF80AA090E876
:10029000000C82448344AAF10107DA4501D100F041
:1002A0002FF8AFF2090EBAE80F0013F0010F18BFD4
:1002B000FB1A43F0010318473C0600005C060000EF
:1002C000103A24BF78C878C1FAD8520724BF30C882
:1002D00030C144BF04680C60704700000023002454
:1002E00000250026103A28BF78C1FBD8520728BF46
:1002F00030C148BF0B6070471FB51FBD10B510BDA2
:1003000000F029F81146FFF7F7FF00F03DFA00F082
:1003100047F803B4FFF7F2FF03BC00F04FF800000A
:1003200072B6704762B67047EFF3108072B67047CE
:1003300080F31088704730BF704702480249014A75
:10034000024B7047700000207004002070000020F5
:10035000704770477047754600F02CF8AE460500B0
:100360006946534620F00700854618B020B5FFF7D0
:10037000E4FFBDE820404FF000064FF000074FF0CB
:1003800000084FF0000B21F00701AC46ACE8C009B3
:10039000ACE8C009ACE8C009ACE8C0098D467047BC
:1003A00010B50446AFF300802046BDE81040FFF7CB
:1003B000B0BF00000048704710000020014918201D
:1003C000ABBEFEE726000200704700001D48006F2C
:1003D00040F000401B4908670846006F40F4006089
:1003E00008670846006E20F4F86008660846006E4C
:1003F00000F5A86008660846006F20F070000867E6
:100400000846006F08670846006F20F40050086730
:100410000846006F40F0804008670846006F20F0F3
:10042000FE5000F1E070086700BF0648006D00F064
:1004300040000028F9D00348006F20F40060014913
:100440000867704700E00F40234A126842F001023B
:10045000214B1A6000BF214A126802F02002002AD4
:10046000F9D01F4A126842F0C0021D4B1A601C4AA4
:10047000FC32126842F0C002194BFC331A60194A70
:100480001268184B1B6823F07F4343F088431A43DC
:10049000144B1A60144A126E22F4602242F4801245
:1004A000114B1A660022114B1A6440F608425A6634
:1004B000C8221A6646F2A7121A65421EDA654A1E5B
:1004C0009A651A46126C42F001021A641A46926842
:1004D00042F003029A60704740E60F4008EA0F407E
:1004E000205400402C55004000E00F4000800240A6
:1004F0001448006840F002001349C1F8080113488D
:10050000006820F00F0011490860081D00686FF3B3
:100510000F00091D08600E48006840F00F000C49EC
:1005200008600B482030006820F00F000849203197
:10053000086006480C38006840F00F0003490C3989
:100540000860704708E10F4000E00F402855004068
:100550000054004008B53948006840F02000384990
:10056000C1F80801354800680090364836490860EF
:10057000081D006840F01F00091D0860081D006884
:1005800020F01E00091D0860081D00686FF31300AD
:10059000091D08602D48006840F00E002B490860D6
:1005A0000846006820F011000860284820300068E4
:1005B00020F01F00254920310860234810380068CA
:1005C00040F011002049103908601F48001F0068E2
:1005D00040F01F001C49091F08601C48001D0068EE
:1005E00020F011001949091D0860081D006820F05D
:1005F0001100091D0860081D006820F01100091D88
:100600000860112011491C31086010481030006842
:1006100040F011000D49103108600D48006820F4C9
:10062000600040F480000A4908604FF0E020D0F8F4
:10063000000140F080400749086008BD08E10F4014
:1006400000E00F404B434F4C205502400054024005
:100650001CE400E000E100E000BF0548806900F014
:1006600010000028F9D102480068C0B270470000AD
:1006700000D000403C48006840F002003B49C1F80F
:1006800004010846D0F8080140F00400C1F8080150
:100690000846D0F8040140F00100C1F80401084602
:1006A000D0F8080140F00100C1F808013048006BA3
:1006B00020F001002E49086311204862172088624B
:1006C0007020C8620846006B40F201310843284997
:1006D00008632848006840F0030026490860254860
:1006E000FC30006840F003002249FC3108602248D9
:1006F000006820F0FF0011301F490860081F0068E3
:1007000020F00300091F08601C48006B20F0010066
:100710001A49086336204862102088627020C86237
:100720000846006B40F2013108431449086314483D
:10073000006840F03000124908601148FC30006841
:1007400040F030000E49FC3108600E48006820F48B
:100750007F0000F508100B490860081F006820F0B2
:100760003000091F0860704704E10F4000E00F40AF
:1007700000C00040204400402C45004000D0004014
:10078000206400402C650040FFF720FEFFF772FF59
:10079000FFF7E0FEFFF7ACFEA3E0FFF75DFF514976
:1007A000087008460078732828D006DC612840D0FD
:1007B00064284DD06C2820D161E0742857D075286A
:1007C00075D07728F7D10820474908604748D0F806
:1007D000FC0320F00F004549C1F8FC030846D0F89F
:1007E000FC0340F00A00C1F8FC03414A12685108BA
:1007F0003F4A12685008FFF727FE71E004203A498B
:1008000008603A48D0F8FC0320F00F003749C1F8DF
:10081000FC030846D0F8FC0360F00A00C1F8FC03B2
:10082000334A12685108324A12685008FFF70CFE2A
:1008300056E00A202C4908602D4800680321B0FBCF
:10084000F1F42B48006881082046FFF7FDFD47E0E2
:10085000062025490860264800680321B0FBF1F412
:100860002349096888082146FFF7EEFD38E000209B
:100870001D49086000210846FFF7E6FD30E01C48EE
:10088000006840F6C411B1EB500F06D2184800685A
:10089000C1EB5000400016490860154A1268510823
:1008A000134A12685008FFF7CFFD19E0FFE7104820
:1008B000006845F2E471B1EB500F08D90C480068AC
:1008C00040F6C41101EB5000400009490860084A95
:1008D00012685108064A12685008FFF7B5FD00BFBC
:1008E00000BF5AE70E000020FC53024000500040B9
:1008F000000000201409000000000020100000008B
:10090000C002000024090000100000206004000064
:10091000DC020000D43000000000000000000000F5
:0409200000000000D3
:040000050000026D88
:00000001FF
