:020000040000FA
:10000000600400206D020000710200007302000015
:100010007502000077020000790200000000000075
:100020000000000000000000000000007B02000053
:100030007D020000000000007F020000810200003D
:10004000830200008302000083020000830200009C
:10005000830200008302000083020000830200008C
:10006000830200008302000083020000830200007C
:10007000830200008302000083020000830200006C
:10008000830200008302000083020000830200005C
:10009000830200008302000083020000830200004C
:1000A000830200008302000083020000830200003C
:1000B000830200008302000083020000830200002C
:1000C000830200008302000083020000830200001C
:1000D000830200008302000083020000830200000C
:1000E00083020000830200008302000083020000FC
:1000F00083020000830200008302000083020000EC
:1001000083020000830200008302000083020000DB
:1001100083020000830200008302000083020000CB
:1001200083020000830200008302000083020000BB
:1001300083020000830200008302000083020000AB
:1001400000000000000000000000000000000000AF
:10015000830200008302000083020000830200008B
:10016000000000000000000000000000000000008F
:10017000000000000000000000000000000000007F
:10018000000000000000000000000000000000006F
:10019000000000000000000000000000000000005F
:1001A000000000000000000000000000000000004F
:1001B000830200008302000083020000830200002B
:1001C000830200008302000083020000830200001B
:1001D000830200008302000083020000830200000B
:1001E00083020000830200008302000083020000FB
:1001F00083020000830200008302000083020000EB
:10020000830200008302000083020000000000005F
:1002100083020000830200008302000083020000CA
:1002200083020000830200008302000083020000BA
:1002300083020000830200008302000083020000AA
:10024000830200008302000083020000830200009A
:10025000830200008302000083020000830200008A
:1002600083020000830200008302000000F00AB84D
:10027000FEE7FEE7FEE7FEE7FEE7FEE7FEE7FEE756
:10028000FEE7FEE700F002F800F02CF80AA090E884
:10029000000C82448344AAF10107DA4501D100F041
:1002A00021F8AFF2090EBAE80F0013F0010F18BFE2
:1002B000FB1A43F0010318470C0600001C0600005F
:1002C0000023002400250026103A28BF78C1FBD85F
:1002D000520728BF30C148BF0B6070471FB51FBD14
:1002E00010B510BD00F029F81146FFF7F7FF00F038
:1002F000DFF900F047F803B4FFF7F2FF03BC00F0AA
:100300004FF8000072B6704762B67047EFF3108086
:1003100072B6704780F31088704730BF704702484C
:100320000249014A024B704760000020600400202F
:1003300060000020704770477047754600F02CF849
:10034000AE4605006946534620F00700854618B0C2
:1003500020B5FFF7E4FFBDE820404FF000064FF066
:1003600000074FF000084FF0000B21F00701AC46EA
:10037000ACE8C009ACE8C009ACE8C009ACE8C00909
:100380008D46704710B50446AFF300802046BDE8A7
:100390001040FFF7B0BF0000004870470000002089
:1003A00001491820ABBEFEE726000200704700B5E9
:1003B0000246002100F0CCF840B2505405E0481C41
:1003C000C1B200F0C5F840B25054505C4B2802D086
:1003D000505C2928F3D1481CC1B200F0B9F840B2F2
:1003E0005054481CC1B200F0B3F840B25054481CFD
:1003F000C1B20020505400BD08B50548009002E08D
:100400000098401E009000980028F9D108BD000017
:1004100080841E003C48006840F020003B49C1F841
:1004200008013B483B490860081D006840F01F0078
:10043000091D0860081D006820F01F00091D0860E4
:10044000081D00686FF31300091D0860324800683A
:1004500020F01100304908600846006840F00E00A6
:1004600008602D482030006820F01F002A49203104
:10047000086028481038006840F0110025491039FC
:1004800008602448001F006840F01F002149091F30
:1004900008602148001D006820F011001E49091D58
:1004A0000860081D006820F01100091D0860081D83
:1004B000006820F01100091D086017481C30006812
:1004C00040F0110014491C310860134810300068D6
:1004D00040F01100104910310860104800680F49C1
:1004E000096821F4600141F4003108430B490860B8
:1004F0004FF0E020D0F8000140F080404FF0E021C4
:10050000C1F800017047000008E10F4000E00F4013
:100510004B434F4C20550240005402401CE400E085
:1005200000BF0449896901F020010029F9D101497E
:100530000860704700C0004000B5024603E0107834
:10054000FFF7EEFF521C10780028F8D100BD000024
:1005500000BF0548806900F010000028F9D102486A
:100560000068C0B27047000000D0004000BF0449DE
:10057000896901F020010029F9D10149086070471B
:1005800000D0004000B5024603E01078FFF7EEFF10
:10059000521C10780028F8D100BD00003C480068CB
:1005A00040F002003B49C1F804010846D0F80801B8
:1005B00040F00400C1F808010846D0F8040140F0FA
:1005C0000100C1F804010846D0F8080140F001001C
:1005D000C1F808013048006B20F001002E49086383
:1005E00011204862172088627020C8620846006B9C
:1005F00040F201310843284908632848006840F068
:100600000300264908602548FC30006840F00300DC
:100610002249FC3108602248006820F0FF001130B8
:100620001F490860081F006820F00300091F0860C8
:100630001C48006B20F001001A4908631A20486228
:10064000032088627020C8620846006B40F20131C6
:100650000843144908631448006840F03000124908
:1006600008601148FC30006840F030000E49FC3151
:1006700008600E48006820F47F0000F508100B4960
:100680000860081F006820F03000091F08607047EC
:1006900004E10F4000E00F4000C000402044004053
:1006A0002C45004000D00040206400402C650040F4
:1006B00000B589B0FFF772FFFFF7ACFE5EA0FFF751
:1006C0003BFF5DA0FFF75EFF00BF6048806900F060
:1006D00008000028F9D101A8FFF769FE01A8FFF77B
:1006E0002BFFFFF789FE5AA0FFF726FF58A0FFF760
:1006F00049FF00BF5548806900F008000028F9D183
:1007000001A8FFF754FE01A8FFF716FFFFF774FEDC
:1007100055A0FFF711FF54A0FFF734FF00BF4B486F
:10072000806900F008000028F9D101A8FFF73FFE1A
:1007300001A8FFF701FFFFF75FFE4FA0FFF7FCFEE8
:100740004DA0FFF71FFF00BF4048806900F0080080
:100750000028F9D101A8FFF72AFE01A8FFF7ECFE57
:10076000FFF74AFE47A0FFF7E7FE46A0FFF70AFFA4
:1007700000BF3648806900F008000028F9D101A8C0
:10078000FFF715FE01A8FFF7D7FEFFF735FE40A0E3
:10079000FFF7D2FE3EA0FFF7F5FE00BF2B488069B1
:1007A00000F008000028F9D101A8FFF700FE01A819
:1007B000FFF7C2FE39A0FFF7BFFE38A0FFF7E2FE49
:1007C00000BF2248806900F008000028F9D101A884
:1007D000FFF7EDFD01A8FFF7AFFE33A0FFF7ACFE7A
:1007E00031A0FFF7CFFE00BF1848806900F0080075
:1007F0000028F9D101A8FFF7DAFD01A8FFF79CFE58
:10080000FFF7FAFD01A8FFF797FE2AA0FFF794FE75
:1008100028A0FFF7B7FE00BF0C48806900F0080071
:100820000028F9D101A8FFF7C2FD01A8FFF784FE57
:10083000002009B000BD000041542B4E414D453D04
:100840004D61737465720D0A0000000000D0004015
:1008500041542B554152543D35373630302C302CD5
:10086000312C0D0A0000000041542B505357443DD9
:10087000313132320D0A000041542B524F4C453D6C
:10088000300D0A0041542B554152543F0D0A0000CF
:1008900041542B505357443F0D0A000041542B52F2
:1008A0004F4C453F0D0A000041542B4E414D453FF2
:1008B0000D0A000041542B56455253494F4E3F0DEF
:1008C0000A000000D40800000000002060040000BE
:0408D000C002000062
:040000050000026D88
:00000001FF
